:100000000C945D000C9485000C9485000C94850084
:100010000C9485000C9485000C9485000C9485004C
:100020000C9485000C9485000C9485000C9485003C
:100030000C9485000C9485000C9485000C9485002C
:100040000C949C020C9485000C9462020C94270280
:100050000C9485000C9485000C9485000C9485000C
:100060000C9485000C9485000000000024002700FB
:100070002A0000000000250028002B0004040404CE
:100080000404040402020202020203030303030342
:10009000010204081020408001020408102001021F
:1000A00004081020000000070002010000030406FD
:1000B0000000000000000000E60211241FBECFEF88
:1000C000D8E0DEBFCDBF11E0A0E0B1E0EEEEFDE094
:1000D00002C005900D92A832B107D9F721E0A8E23D
:1000E000B1E001C01D92AF3DB207E1F710E0CDE5F0
:1000F000D0E004C02197FE010E94EF06CC35D10765
:10010000C9F70E9421030C9499040C940000E7EABB
:10011000F0E02491E3E9F0E09491EFE7F0E0E4917E
:10012000EE2309F43BC0222339F1233091F038F457
:100130002130A9F0223001F524B52F7D12C02630E0
:1001400091F02730A1F02430B9F4209180002F7D68
:1001500003C0209180002F77209380000DC024B52C
:100160002F7724BD09C02091B0002F7703C02091C4
:10017000B0002F7D2093B000F0E0EE0FFF1FEE588F
:10018000FF4FA591B4912FB7F894EC91811103C062
:1001900090959E2301C09E2B9C932FBF08952FB74F
:1001A000F8948091B5019091B601A091B701B091FA
:1001B000B8012FBF8093C1019093C201A093C301E6
:1001C000B093C401E091B901F091BA010680F781C2
:1001D000E02D89EB91E0099597FF26C02FB7F894A1
:1001E0008091B5019091B601A091B701B091B8018D
:1001F0002FBF4091C1015091C2016091C301709124
:10020000C401841B950BA60BB70B4091BD01509107
:10021000BE016091BF017091C00184179507A607C8
:10022000B70780F28FEF9FEF089508950F931F9304
:10023000CF93DF93FC01A685B7858D01005C1F4F2E
:10024000E8018881998101968F739927AD014E5BF2
:100250005F4FEA012881398182179307D1F3E801C2
:1002600028813981A20FB31F6C93A685B785A05C46
:10027000BF4F11969C938E93A689B7892C9181E0EC
:1002800090E0078C02C0880F991F0A94E2F7822B36
:100290008C9381E081A30488F589E02D80818064BE
:1002A000808381E090E0DF91CF911F910F910895BD
:1002B000FC0181A1882329F0A489B5898C9186FF4E
:1002C000FBCF11A20895FC01A485B585FD01E05C7A
:1002D000FF4F208131813296808191812817390723
:1002E00079F080819181A80FB91F8C912081318193
:1002F0002F5F3F4F2F7333273183208390E0089582
:100300008FEF9FEF0895DC011C96ED91FC911D97F6
:10031000DF01A05CBF4F2D913C91119712968D91FA
:100320009C9111972817390739F08D919C91E80F0E
:10033000F91F808190E008958FEF9FEF0895FC01F1
:1003400024853585F901E05CFF4F808191813296EB
:1003500020813181821B930B8F739927089589EB3C
:1003600091E00C949F01CF92DF92EF92FF920F9356
:100370001F93CF93DF936C01EB017B01E40EF51E1D
:1003800000E010E0CE15DF0561F06991D601ED9136
:10039000FC910190F081E02DC6010995080F191F0D
:1003A000F1CFC801DF91CF911F910F91FF90EF9096
:1003B000DF90CF9008953FB7F894809129019091F4
:1003C0002A01A0912B01B0912C0126B5A89B05C054
:1003D0002F3F19F00196A11DB11D3FBFBA2FA92FC4
:1003E000982F8827820F911DA11DB11DBC01CD0141
:1003F00042E0660F771F881F991F4A95D1F708952D
:100400000F931F93CF93DF93EC018881998100971D
:1004100029F02A813B812617370788F48B016F5F0B
:100420007F4F0E94DE05009761F0998388831B83CC
:100430000A832C813D81232B11F4FC01108281E081
:1004400001C080E0DF91CF911F910F9108951F921D
:100450000F920FB60F9211242F933F938F939F9378
:10046000EF93FF9320916D0130916E0180916F01A8
:10047000909170012817390731F48091C1008F7D68
:100480008093C10014C0E0916F01F0917001E35DB1
:10049000FE4F208180916F019091700101968F73C2
:1004A00099279093700180936F012093C600FF916C
:1004B000EF919F918F913F912F910F900FBE0F90D1
:1004C0001F9018951F920F920FB60F9211242F9321
:1004D0004F935F938F939F93EF93FF938091C0000F
:1004E00082FD1CC02091C6008091B1019091B201A3
:1004F00001968F7399274091B3015091B4018417ED
:10050000950771F0E091B101F091B201EF58FE4F03
:1005100020839093B2018093B10102C08091C60004
:10052000FF91EF919F918F915F914F912F910F903C
:100530000FBE0F901F9018951F920F920FB60F923B
:1005400011242F933F938F939F93AF93BF938091E9
:10055000B5019091B601A091B701B091B801309169
:10056000280123E0230F2D3720F40196A11DB11D92
:1005700005C026E8230F0296A11DB11D2093280176
:100580008093B5019093B601A093B701B093B801E1
:100590008091290190912A01A0912B01B0912C0109
:1005A0000196A11DB11D8093290190932A01A0936A
:1005B0002B01B0932C01BF91AF919F918F913F91EF
:1005C0002F910F900FBE0F901F901895E9EBF1E05F
:1005D0001382128288EE93E0A0E0B0E084839583DA
:1005E000A683B7838AE091E09183808381E791E0DD
:1005F000958784878DE291E09787868785EC90E0E8
:10060000918B808B84EC90E0938B828B80EC90E0DC
:10061000958B848B81EC90E0978B868B82EC90E0BD
:10062000918F808F86EC90E0938F828F84E0848F0F
:1006300083E0858F87E0868F85E0878F81E080A3C8
:100640000895CF93DF93CDB7DEB729970FB6F8940F
:10065000DEBF0FBECDBF789484B5826084BD84B503
:10066000816084BD85B5826085BD85B5816085BDAD
:1006700080916E00816080936E0010928100809165
:1006800081008260809381008091810081608093ED
:100690008100809180008160809380008091B10012
:1006A00084608093B1008091B00081608093B0003D
:1006B00080917A00846080937A0080917A008260D1
:1006C00080937A0080917A00816080937A00809193
:1006D0007A00806880937A001092C100E091CD0189
:1006E000F091CE0181E090E09C010090D90102C020
:1006F000220F331F0A94E2F72083E091C901F091A1
:10070000CA011082E091CB01F091CC0123E020835B
:100710001092DA01E091CF01F091D00140819C016B
:100720000090D50102C0220F331F0A94E2F7242B58
:100730002083E091CF01F091D00140819C01009095
:10074000D60102C0220F331F0A94E2F7242B208324
:10075000E091CF01F091D00140819C010090D70140
:1007600002C0220F331F0A94E2F7242B2083E0916A
:10077000CF01F091D00120810090D80102C0880FF4
:10078000991F0A94E2F7809582238083E3E9F0E0E1
:100790002491EFE7F0E08491882399F090E0880FAE
:1007A000991FFC01E859FF4FA591B491FC01EE5847
:1007B000FF4F859194918FB7F894EC91E22BEC93D5
:1007C0008FBF80E00E94870041E150E066E171E068
:1007D00089EB91E00E94B30189EB91E00E949F01B7
:1007E000181619060CF07BC01A8219821C821B8213
:1007F0001E821D821F8260E070E0CE0101960E9481
:10080000000229813A8181110DC02115310519F0AD
:10081000C9010E9446051A8219821E821D821C820D
:100820001B8222C01E821D8267E271E0C9010E9404
:10083000B1061AC0888719860D811E810F5F1F4F70
:10084000B801CE0101960E940002882369F0298137
:100850003A818D819E81BE01685F7F4F820F931F19
:100860000E94B1061E830D830E94CF0097FFE2CF46
:1008700009811A810115110531F0C8010E94720425
:100880006B017C0103C0C12CD12C7601C8010E94F0
:100890004605CA94CD2801F581E00E9487000E9498
:1008A000DB018B0188E8C82E83E1D82EE12CF12CE6
:1008B0000E94DB01601B710B683E734038F081E0E1
:1008C000C81AD108E108F10808511C4FC114D1041D
:1008D000E104F10469F703C080E00E9487000E94F0
:1008E000AF0172CF1F93FC0199278827BC01E894C0
:1008F00011911032E9F3193010F01E30C8F31B3299
:1009000051F01D3249F4689406C00E949C04610FA6
:10091000711D811D911D119110531A30B0F33EF4D9
:1009200090958095709561957F4F8F4F9F4F1F9148
:100930000895F8940C94F506592F482F372F262F39
:10094000660F771F881F991F660F771F881F991FD3
:10095000620F731F841F951F660F771F881F991FD3
:100960000895CF93DF938230910510F482E090E0F8
:10097000E091DD01F091DE0120E030E0C0E0D0E068
:10098000309711F14081518148175907C0F048173D
:10099000590761F482819381209719F09B838A83A0
:1009A0002BC09093DE018093DD0126C02115310517
:1009B00019F04217530718F49A01BE01DF01EF0145
:1009C0000280F381E02DDCCF2115310509F1281BD0
:1009D000390B2430310590F412968D919C91139728
:1009E0006115710521F0FB019383828304C090930C
:1009F000DE018093DD01FD01329644C0FD01E20F6E
:100A0000F31F81939193225031092D933C933AC067
:100A10002091DB013091DC01232B41F42091020174
:100A2000309103013093DC012093DB012091000120
:100A3000309101012115310541F42DB73EB74091A8
:100A4000040150910501241B350BE091DB01F0916D
:100A5000DC01E217F307A0F42E1B3F0B2817390720
:100A600078F0AC014E5F5F4F2417350748F04E0F0A
:100A70005F1F5093DC014093DB018193919302C08F
:100A8000E0E0F0E0CF01DF91CF9108950F931F9345
:100A9000CF93DF93009709F48CC0FC013297138247
:100AA00012820091DD011091DE010115110581F422
:100AB00020813181820F931F2091DB013091DC0175
:100AC0002817390779F5F093DC01E093DB0171C059
:100AD000D80140E050E0AE17BF0750F412962D91B8
:100AE0003C911397AD012115310509F1D901F3CFDF
:100AF0009D01DA013383228360817181860F971F04
:100B00008217930769F4EC0128813981260F371F7A
:100B10002E5F3F4F318320838A819B819383828321
:100B2000452B29F4F093DE01E093DD0142C01396DA
:100B3000FC93EE931297ED01499159919E01240F78
:100B4000351FE217F30771F480819181840F951F9F
:100B5000029611969C938E938281938113969C9317
:100B60008E931297E0E0F0E0D80112968D919C915F
:100B70001397009719F0F8018C01F6CF8D919C9195
:100B800098012E5F3F4F820F931F2091DB01309120
:100B9000DC012817390769F4309729F41092DE0137
:100BA0001092DD0102C0138212821093DC010093C7
:100BB000DB01DF91CF911F910F910895A0E0B0E08C
:100BC000E4EEF5E00C94BC06EC01009721F4CB01B7
:100BD0000E94B104B8C0FC01E60FF71F9C0122502F
:100BE0003109E217F30708F4ACC0D9010D911C914B
:100BF000119706171707B0F00530110508F49FC0CC
:100C0000C80104978617970708F499C00250110984
:100C1000061B170B019311936D937C93CF010E94D8
:100C200046058DC05B01A01AB10A4C01800E911ED1
:100C3000A091DD01B091DE0140E050E0E12CF12C0B
:100C4000109709F44AC0A815B905D1F56D907C90AC
:100C50001197630182E0C80ED11CCA14DB0480F135
:100C6000A3014A195B096A0182E0C80ED11C1296E1
:100C7000BC9012971396AC91B5E0CB16D10440F01E
:100C8000B282A38351834083D9016D937C930AC0C0
:100C90000E5F1F4FC301800F911FF9019183808365
:100CA000EB2DFA2FE114F10431F0D7011396FC93E8
:100CB000EE93129744C0F093DE01E093DD013FC054
:100CC0008D919C9111974817590708F4AC017D014B
:100CD00012960D90BC91A02DB3CF8091DB01909125
:100CE000DC0188159905E1F446175707C8F480918F
:100CF000000190910101009741F48DB79EB740919A
:100D0000040150910501841B950BE817F907C8F4FD
:100D1000F093DC01E093DB01F901718360830FC084
:100D2000CB010E94B1047C01009759F0A801BE01DB
:100D30000E94A806CE010E944605C70104C0CE014C
:100D400002C080E090E0CDB7DEB7EEE00C94D806AC
:100D5000FB01DC0102C001900D9241505040D8F7D8
:100D60000895FB01DC0101900D920020E1F7089548
:100D70002F923F924F925F926F927F928F929F92AB
:100D8000AF92BF92CF92DF92EF92FF920F931F9399
:100D9000CF93DF93CDB7DEB7CA1BDB0B0FB6F8944A
:100DA000DEBF0FBECDBF09942A88398848885F848A
:100DB0006E847D848C849B84AA84B984C884DF80FB
:100DC000EE80FD800C811B81AA81B981CE0FD11DDF
:100DD0000FB6F894DEBF0FBECDBFED010895EE0F44
:0E0DE000FF1F0590F491E02D0994F894FFCFC9
:100DEE000000DF012000000000001601B3019F018A
:100DFE0063018301580153657269616C20726563EA
:080E0E0065697665643A200075
:00000001FF
