:100000000C945D000C9485000C9485000C94850084
:100010000C9485000C9485000C9485000C9485004C
:100020000C9485000C9485000C9485000C94560368
:100030000C9485000C9485000C9485000C9485002C
:100040000C941E010C9485000C9452040C9417041B
:100050000C9485000C9485000C9485000C9485000C
:100060000C9485000C94850000000007000201003C
:100070000003040600000000000000000000000073
:10008000250028002B0000000000240027002A0083
:10009000040404040404040402020202020203032E
:1000A0000303030301020408102040800102040836
:1000B0001020010204081020900711241FBECFEF6A
:1000C000D8E0DEBFCDBF11E0A0E0B1E0E8EAF0E1AA
:1000D00002C005900D92A031B107D9F721E0A0E14F
:1000E000B1E001C01D92AD3FB207E1F710E0CDE5F0
:1000F000D0E004C02197FE010E944C08CC35D10706
:10010000C9F70E948C040C94DA070C9400003FB7E6
:10011000F8948091150190911601A0911701B0916A
:10012000180126B5A89B05C02F3F19F00196A11D07
:10013000B11D3FBFBA2FA92F982F8827820F911D7D
:10014000A11DB11DBC01CD0142E0660F771F881FC4
:10015000991F4A95D1F70895CF92DF92EF92FF92BF
:10016000CF93DF936B017C010E948700EB01C114E8
:10017000D104E104F10479F00E9487006C1B7D0B2F
:10018000683E7340A0F381E0C81AD108E108F10885
:10019000C851DC4FECCFDF91CF91FF90EF90DF9013
:1001A000CF90089590E0FC01E859FF4F3491FC0195
:1001B000EC55FF4F2491FC01E057FF4FE491EE23F3
:1001C00009F43BC0332339F1333091F038F4313046
:1001D000A9F0323001F584B58F7D12C0363091F030
:1001E0003730A1F03430B9F4809180008F7D03C0A6
:1001F000809180008F77809380000DC084B58F77C9
:1002000084BD09C08091B0008F7703C08091B00099
:100210008F7D8093B000F0E0EE0FFF1FE458FF4F9A
:10022000A591B4918FB7F894EC91611103C020951A
:100230002E2301C02E2B2C938FBF08951F920F9257
:100240000FB60F9211242F933F938F939F93AF93E9
:10025000BF938091110190911201A0911301B0916F
:1002600014013091100123E0230F2D3720F4019663
:10027000A11DB11D05C026E8230F0296A11DB11DC9
:10028000209310018093110190931201A093130108
:10029000B09314018091150190911601A09117015E
:1002A000B09118010196A11DB11D80931501909385
:1002B0001601A0931701B0931801BF91AF919F91C0
:1002C0008F913F912F910F900FBE0F901F90189517
:1002D000CF92DF92EF92FF920F931F93CF93DF9312
:1002E0006C01EB017B01E40EF51E00E010E0CE1581
:1002F000DF0561F06991D601ED91FC910190F081EB
:10030000E02DC6010995080F191FF1CFC801DF9133
:10031000CF911F910F91FF90EF90DF90CF900895B4
:100320000895FC01909174019C30A0F481E0890F44
:10033000809374019083892F90E0FC01EE0FFF1FE2
:100340008E0F9F1FFC01EF5DFE4F88EB9BE09283B9
:10035000818308958FEF808308950F931F93CF9328
:10036000DF93FC01A685B7858D01005C1F4FE80176
:100370008881998101968F739927AD014E5B5F4FFC
:10038000EA012881398182179307D1F3E801288196
:100390003981A20FB31F6C93A685B785A05CBF4FB0
:1003A00011969C938E93A689B7892C9181E090E059
:1003B000078C02C0880F991F0A94E2F7822B8C9356
:1003C00081E081A30488F589E02D808180648083A9
:1003D00081E090E0DF91CF911F910F910895FC0192
:1003E00081A1882329F0A489B5898C9186FFFBCF50
:1003F00011A20895FC01A485B585FD01E05CFF4FC5
:10040000208131813296808191812817390779F0D6
:1004100080819181A80FB91F8C91208131812F5F3C
:100420003F4F2F7333273183208390E008958FEF60
:100430009FEF0895DC011C96ED91FC911D97DF0163
:10044000A05CBF4F2D913C91119712968D919C917C
:1004500011972817390739F08D919C91E80FF91FF2
:10046000808190E008958FEF9FEF0895FC0124852F
:100470003585F901E05CFF4F8081918132962081C2
:100480003181821B930B8F739927089585E491E046
:100490000C94360290E0FC01EC55FF4F2491FC01D6
:1004A000E057FF4F8491882399F090E0880F991FBF
:1004B000FC01EA57FF4FA591B491FC01E458FF4FAE
:1004C000859194918FB7F894EC91E22BEC938FBFC8
:1004D0000895CF92DF92EF92FF92CF93DF93EC01DA
:1004E000603282E078070CF03DC077FD06C0653BC6
:1004F00071052CF064EB70E002C060E070E089816F
:1005000028E830E06901C81AD10887FDD394CC0CE3
:10051000DD1CCC0CDD1C0D2C000CEE08FF088A81C4
:1005200028E532E0281B310987FD3395220F331F60
:10053000220F331FC901330FAA0BBB0B9C01AD0166
:100540002C193D094E095F09DB010E94070824EBC5
:1005500030E040E050E00E94DD07C20ED31EE41EF2
:10056000F51EB60188818C3080F5998148E850E00D
:10057000491B510997FD5395440F551F440F551FB3
:100580006417750784F09A8128E532E0291B310948
:1005900097FD3395220F331F220F331FAB01261710
:1005A00037070CF4A9012FB7F89490E0FC01EE0F87
:1005B000FF1F8E0F9F1FFC01EF5DFE4F4250510940
:1005C000440F551F528341832FBFDF91CF91FF907E
:1005D000EF90DF90CF9008950F931F93CF93DF9309
:1005E0001F92CDB7DEB78C01DC018C918C3008F006
:1005F00055C0862F69830E944A02F8018081E82F46
:10060000F0E09F01220F331FE20FF31FEF5DFE4F5B
:1006100069816F739081907C692B6083D8011196FA
:100620001C92119712961C926CE00E944008BCE04C
:100630008B9FB001112440E050E09A01260F371F34
:10064000F901EE0FFF1F2E0F3F1FF901EF5DFE4F67
:10065000908196FD16C04F5F5F4F4C30510569F792
:1006600081110FC01092800082E08093810010926F
:10067000850010928400B19A80916F00826080930F
:100680006F00D801EC91F0E0CF01880F991FE80FBF
:10069000F91FEF5DFE4F808180648083F8018081C7
:1006A0000F90DF91CF911F910F9108951F920F929C
:1006B0000FB60F9211242F933F934F935F936F9335
:1006C0007F938F939F93AF93BF93EF93FF9380910B
:1006D000730187FF05C010928500109284001BC033
:1006E00020917301022E000C330B8091740190E075
:1006F0002817390784F480917301082E000C990B98
:10070000FC01EE0FFF1F8E0F9F1FFC01EF5DFE4FE0
:10071000808186FD15C0809173018F5F8093730186
:1007200020917301022E000C330B8091740190E034
:1007300028173907C4F4809173018C3064F113C019
:1007400080917301082E000C990BFC01EE0FFF1F26
:100750008E0F9F1FFC01EF5DFE4F808160E08F7365
:100760000E94D200D8CF8091840090918500049699
:1007700080349C4918F480E49CE905C08091840091
:1007800090918500049690938900809388008FEF64
:10079000809373013BC0209184003091850080914B
:1007A0007301082E000C990BFC01EE0FFF1F8E0F3A
:1007B0009F1FFC01EF5DFE4F81819281820F931F8D
:1007C000909389008093880080917301082E000C1B
:1007D000990BFC01EE0FFF1F8E0F9F1FFC01EF5DB9
:1007E000FE4F808186FF12C080917301082E000C9D
:1007F000990BFC01EE0FFF1F8E0F9F1FFC01EF5D99
:10080000FE4F808161E08F730E94D200FF91EF91D3
:10081000BF91AF919F918F917F916F915F914F9118
:100820003F912F910F900FBE0F901F9018951F9220
:100830000F920FB60F9211242F933F938F939F9394
:10084000EF93FF932091B5013091B6018091B701EC
:100850009091B8012817390731F48091C1008F7D3C
:100860008093C10014C0E091B701F091B801EB583A
:10087000FE4F20818091B7019091B80101968F734E
:1008800099279093B8018093B7012093C600FF91F8
:10089000EF919F918F913F912F910F900FBE0F90ED
:1008A0001F9018951F920F920FB60F9211242F933D
:1008B0004F935F938F939F93EF93FF938091C0002B
:1008C00082FD1CC02091C6008091F9019091FA012F
:1008D00001968F7399274091FB015091FC01841779
:1008E000950771F0E091F901F091FA01E754FE4F9C
:1008F00020839093FA018093F90102C08091C60091
:10090000FF91EF919F918F915F914F912F910F9058
:100910000FBE0F901F901895789484B5826084BDA7
:1009200084B5816084BD85B5826085BD85B58160F3
:1009300085BD80916E00816080936E001092810071
:10094000809181008260809381008091810081602C
:1009500080938100809180008160809380008091ED
:10096000B10084608093B1008091B0008160809379
:10097000B00080917A00846080937A0080917A0040
:10098000826080937A0080917A00816080937A00FF
:1009900080917A00806880937A001092C100E09183
:1009A0005901F0915A0181E090E09C0100906501AD
:1009B00002C0220F331F0A94E2F72083E091550111
:1009C000F09156011082E0915701F091580120E119
:1009D000208310926601E0915B01F0915C014081FF
:1009E0009C010090610102C0220F331F0A94E2F7BC
:1009F000242B2083E0915B01F0915C0140819C01FC
:100A00000090620102C0220F331F0A94E2F7242BE8
:100A10002083E0915B01F0915C0140819C0100909A
:100A2000630102C0220F331F0A94E2F7242B2083B4
:100A3000E0915B01F0915C0120810090640102C0B3
:100A4000880F991F0A94E2F780958223808382E0C1
:100A50000E944A0283E00E944A0284E00E944A0205
:100A600085E00E944A0286E00E944A0260E082E03D
:100A70000E94D20063E070E080E791E00E94EC0207
:100A800060E070E080E791E00E946902E09170010F
:100A9000F0E0CF01880F991FE80FF91FEF5DFE4FBF
:100AA00080818F7B808368EE73E080E090E00E941D
:100AB000AC0064E070E08DE691E00E94EC0269E633
:100AC00070E08DE691E00E946902E0916D01F0E036
:100AD000CF01880F991FE80FF91FEF5DFE4F80814E
:100AE0008F7B808368EE73E080E090E00E94AC0032
:100AF00065E070E08AE691E00E94EC0264EB70E051
:100B00008AE691E00E946902E0916A01F0E0CF017B
:100B1000880F991FE80FF91FEF5DFE4F80818F7BD3
:100B2000808368EE73E080E090E00E94AC0066E0B5
:100B300070E087E691E00E94EC0262E870E087E6F0
:100B400091E00E946902E0916701F0E0CF01880F17
:100B5000991FE80FF91FEF5DFE4F80818F7B808327
:100B600068EE73E080E090E00E94AC0088E893E1DA
:100B70009093200180931F0190931E0180931D018B
:100B800090931C0180931B0190931A01809319018B
:100B90008091700190E0FC01EE0FFF1F8E0F9F1FF0
:100BA000FC01EF5DFE4F808186FD06C063E070E0D2
:100BB00080E791E00E94EC02E0916D01F0E0CF014E
:100BC000880F991FE80FF91FEF5DFE4F808186FFA8
:100BD00002C08F7B8083E0916A01F0E0CF01880F33
:100BE000991FE80FF91FEF5DFE4F808186FF02C05D
:100BF0008F7B8083E0916701F0E0CF01880F991F20
:100C0000E80FF91FEF5DFE4F808186FF02C08F7BEA
:100C10008083C0E0D0E0BE0180E791E00E946902DD
:100C200069E170E080E090E00E94AC002196C8335A
:100C3000D10589F768E873E180E090E00E94AC009C
:100C4000C7E3D0E0BE0180E791E00E94690269E15C
:100C500070E080E090E00E94AC00219798F768EE89
:100C600073E080E090E00E94AC0080916D0190E024
:100C7000FC01EE0FFF1F8E0F9F1FFC01EF5DFE4F6B
:100C8000808186FD06C064E070E08DE691E00E9400
:100C9000EC02E0917001F0E0CF01880F991FE80F9E
:100CA000F91FEF5DFE4F808186FF02C08F7B80833E
:100CB000E0916A01F0E0CF01880F991FE80FF91F5A
:100CC000EF5DFE4F808186FF02C08F7B8083E091C5
:100CD0006701F0E0CF01880F991FE80FF91FEF5D62
:100CE000FE4F808186FF02C08F7B8083C9E6D0E003
:100CF000BE018DE691E00E94690269E170E080E04A
:100D000090E00E94AC002196C13AD10589F768E8CD
:100D100073E180E090E00E94AC00C0EAD0E0BE0148
:100D20008DE691E00E94690269E170E080E090E068
:100D30000E94AC002197C836D10589F768EE73E0B0
:100D400080E090E00E94AC0080916A0190E0FC019C
:100D5000EE0FFF1F8E0F9F1FFC01EF5DFE4F808186
:100D600086FD06C065E070E08AE691E00E94EC0234
:100D7000E0916D01F0E0CF01880F991FE80FF91F96
:100D8000EF5DFE4F808186FF02C08F7B8083E09104
:100D90007001F0E0CF01880F991FE80FF91FEF5D98
:100DA000FE4F808186FF02C08F7B8083E0916701C8
:100DB000F0E0CF01880F991FE80FF91FEF5DFE4F9C
:100DC000808186FF02C08F7B8083C4EBD0E0BE01B0
:100DD0008AE691E00E94690269E170E080E090E0BB
:100DE0000E94AC002197C138D10589F768E873E10A
:100DF00080E090E00E94AC00C2E8D0E0BE018AE64C
:100E000091E00E94690269E170E080E090E00E9458
:100E1000AC002196C53BD10589F768EE73E080E010
:100E200090E00E94AC008091670190E0FC01EE0F21
:100E3000FF1F8E0F9F1FFC01EF5DFE4F808186FD1F
:100E400006C066E070E087E691E00E94EC02E09167
:100E50006D01F0E0CF01880F991FE80FF91FEF5DDA
:100E6000FE4F808186FF02C08F7B8083E0916A0104
:100E7000F0E0CF01880F991FE80FF91FEF5DFE4FDB
:100E8000808186FF02C08F7B8083E0917001F0E05B
:100E9000CF01880F991FE80FF91FEF5DFE4F80818A
:100EA00086FF02C08F7B8083C2E8D0E0BE0187E668
:100EB00091E00E94690269E170E080E090E00E94A8
:100EC000AC002197C836D10589F768E873E180E066
:100ED00090E00E94AC00C9E6D0E0BE0187E691E058
:100EE0000E94690269E170E080E090E00E94AC003D
:100EF0002196C338D10589F768EE73E080E090E071
:100F00000E94AC00E0916701F0E0CF01880F991FCB
:100F1000E80FF91FEF5DFE4F80818F7B8083FFCF4D
:100F2000E5E4F1E01382128288EE93E0A0E0B0E005
:100F300084839583A683B78384E091E09183808343
:100F400089EB91E09587848785E791E0978786878D
:100F500085EC90E0918B808B84EC90E0938B828B7E
:100F600080EC90E0958B848B81EC90E0978B868B66
:100F700082EC90E0918F808F86EC90E0938F828F4F
:100F800084E0848F83E0858F87E0868F85E0878F7C
:100F900081E080A380E791E00E9491018DE691E0DD
:100FA0000E9491018AE691E00E94910187E691E01A
:100FB0000C949101F8940C945208052E97FB1EF4A2
:100FC00000940E94F40757FD07D00E940F0807FC09
:100FD00003D04EF40C94F40750954095309521952C
:100FE0003F4F4F4F5F4F0895909580957095619555
:100FF0007F4F8F4F9F4F08950E943108A59F900DFE
:10100000B49F900DA49F800D911D11240895B7FFEA
:101010000C94FC070E94FC07821B930B0895A1E22D
:101020001A2EAA1BBB1BFD010DC0AA1FBB1FEE1F62
:10103000FF1FA217B307E407F50720F0A21BB30BAD
:10104000E40BF50B661F771F881F991F1A9469F729
:1010500060957095809590959B01AC01BD01CF0185
:101060000895A29FB001B39FC001A39F700D811D81
:101070001124911DB29F700D811D1124911D0895A1
:10108000991B79E004C0991F961708F0961B881FDA
:101090007A95C9F780950895EE0FFF1F0590F4919A
:0810A000E02D0994F894FFCF44
:1010A80000000000AD0168013602FA011A02EF01E2
:00000001FF
